{
  "abi": [
    {
      "inputs": [
        {
          "internalType": "uint256",
          "name": "_escapeBlockLowerBound",
          "type": "uint256"
        },
        {
          "internalType": "uint256",
          "name": "_escapeBlockUpperBound",
          "type": "uint256"
        }
      ],
      "stateMutability": "nonpayable",
      "type": "constructor"
    },
    {
      "inputs": [],
      "name": "AAVE_NOT_INITIALIZED",
      "type": "error"
    },
    {
      "inputs": [],
      "name": "ARRAY_OVERFLOW",
      "type": "error"
    },
    {
      "inputs": [
        {
          "internalType": "uint256",
          "name": "inputAssetId",
          "type": "uint256"
        }
      ],
      "name": "BRIDGE_WITH_IDENTICAL_INPUT_ASSETS",
      "type": "error"
    },
    {
      "inputs": [
        {
          "internalType": "uint256",
          "name": "outputAssetId",
          "type": "uint256"
        }
      ],
      "name": "BRIDGE_WITH_IDENTICAL_OUTPUT_ASSETS",
      "type": "error"
    },
    {
      "inputs": [],
      "name": "DAILY_CAP_SURPASSED",
      "type": "error"
    },
    {
      "inputs": [],
      "name": "DEPOSIT_TOKENS_WRONG_PAYMENT_TYPE",
      "type": "error"
    },
    {
      "inputs": [],
      "name": "ENCODING_BYTE_INVALID",
      "type": "error"
    },
    {
      "inputs": [],
      "name": "INCONSISTENT_BRIDGE_CALL_DATA",
      "type": "error"
    },
    {
      "inputs": [
        {
          "internalType": "uint256",
          "name": "providedIndex",
          "type": "uint256"
        },
        {
          "internalType": "uint256",
          "name": "expectedIndex",
          "type": "uint256"
        }
      ],
      "name": "INCORRECT_DATA_START_INDEX",
      "type": "error"
    },
    {
      "inputs": [
        {
          "internalType": "bytes32",
          "name": "providedDefiInteractionHash",
          "type": "bytes32"
        },
        {
          "internalType": "bytes32",
          "name": "expectedDefiInteractionHash",
          "type": "bytes32"
        }
      ],
      "name": "INCORRECT_PREVIOUS_DEFI_INTERACTION_HASH",
      "type": "error"
    },
    {
      "inputs": [
        {
          "internalType": "bytes32",
          "name": "oldStateHash",
          "type": "bytes32"
        },
        {
          "internalType": "bytes32",
          "name": "newStateHash",
          "type": "bytes32"
        }
      ],
      "name": "INCORRECT_STATE_HASH",
      "type": "error"
    },
    {
      "inputs": [],
      "name": "INSUFFICIENT_DEPOSIT",
      "type": "error"
    },
    {
      "inputs": [],
      "name": "INSUFFICIENT_ETH_PAYMENT",
      "type": "error"
    },
    {
      "inputs": [],
      "name": "INSUFFICIENT_TOKEN_APPROVAL",
      "type": "error"
    },
    {
      "inputs": [],
      "name": "INVALID_ADDRESS_NO_CODE",
      "type": "error"
    },
    {
      "inputs": [],
      "name": "INVALID_ASSET_ADDRESS",
      "type": "error"
    },
    {
      "inputs": [],
      "name": "INVALID_ASSET_GAS",
      "type": "error"
    },
    {
      "inputs": [],
      "name": "INVALID_ASSET_ID",
      "type": "error"
    },
    {
      "inputs": [],
      "name": "INVALID_BRIDGE_ADDRESS",
      "type": "error"
    },
    {
      "inputs": [],
      "name": "INVALID_BRIDGE_CALL_DATA",
      "type": "error"
    },
    {
      "inputs": [],
      "name": "INVALID_BRIDGE_GAS",
      "type": "error"
    },
    {
      "inputs": [],
      "name": "INVALID_ESCAPE_BOUNDS",
      "type": "error"
    },
    {
      "inputs": [],
      "name": "INVALID_PROVIDER",
      "type": "error"
    },
    {
      "inputs": [],
      "name": "INVALID_ROLLUP_TOPOLOGY",
      "type": "error"
    },
    {
      "inputs": [],
      "name": "INVALID_SIGNATURE",
      "type": "error"
    },
    {
      "inputs": [],
      "name": "LOCKED_NO_REENTER",
      "type": "error"
    },
    {
      "inputs": [],
      "name": "MSG_VALUE_WRONG_AMOUNT",
      "type": "error"
    },
    {
      "inputs": [
        {
          "internalType": "uint256",
          "name": "outputValue",
          "type": "uint256"
        }
      ],
      "name": "NONZERO_OUTPUT_VALUE_ON_NOT_USED_ASSET",
      "type": "error"
    },
    {
      "inputs": [],
      "name": "NOT_AVAILABLE_IN_V3",
      "type": "error"
    },
    {
      "inputs": [],
      "name": "NOT_PAUSED",
      "type": "error"
    },
    {
      "inputs": [],
      "name": "PAUSED",
      "type": "error"
    },
    {
      "inputs": [],
      "name": "PENDING_CAP_SURPASSED",
      "type": "error"
    },
    {
      "inputs": [],
      "name": "PROOF_VERIFICATION_FAILED",
      "type": "error"
    },
    {
      "inputs": [
        {
          "internalType": "uint256",
          "name": "",
          "type": "uint256"
        },
        {
          "internalType": "uint256",
          "name": "",
          "type": "uint256"
        }
      ],
      "name": "PUBLIC_INPUTS_HASH_VERIFICATION_FAILED",
      "type": "error"
    },
    {
      "inputs": [],
      "name": "SAFE_CAST_OVERFLOW",
      "type": "error"
    },
    {
      "inputs": [],
      "name": "SIGNATURE_ADDRESS_IS_ZERO",
      "type": "error"
    },
    {
      "inputs": [],
      "name": "SIGNATURE_RECOVERY_FAILED",
      "type": "error"
    },
    {
      "inputs": [],
      "name": "THIRD_PARTY_CONTRACTS_FLAG_NOT_SET",
      "type": "error"
    },
    {
      "inputs": [],
      "name": "WITHDRAW_TO_ZERO_ADDRESS",
      "type": "error"
    },
    {
      "inputs": [],
      "name": "ZERO_TOTAL_INPUT_VALUE",
      "type": "error"
    },
    {
      "anonymous": false,
      "inputs": [
        {
          "indexed": false,
          "internalType": "bool",
          "name": "allowed",
          "type": "bool"
        }
      ],
      "name": "AllowThirdPartyContractsUpdated",
      "type": "event"
    },
    {
      "anonymous": false,
      "inputs": [
        {
          "indexed": true,
          "internalType": "uint256",
          "name": "assetId",
          "type": "uint256"
        },
        {
          "indexed": true,
          "internalType": "address",
          "name": "assetAddress",
          "type": "address"
        },
        {
          "indexed": false,
          "internalType": "uint256",
          "name": "assetGasLimit",
          "type": "uint256"
        }
      ],
      "name": "AssetAdded",
      "type": "event"
    },
    {
      "anonymous": false,
      "inputs": [
        {
          "indexed": false,
          "internalType": "uint256",
          "name": "assetId",
          "type": "uint256"
        },
        {
          "indexed": false,
          "internalType": "uint256",
          "name": "pendingCap",
          "type": "uint256"
        },
        {
          "indexed": false,
          "internalType": "uint256",
          "name": "dailyCap",
          "type": "uint256"
        }
      ],
      "name": "AssetCapUpdated",
      "type": "event"
    },
    {
      "anonymous": false,
      "inputs": [
        {
          "indexed": true,
          "internalType": "uint256",
          "name": "encodedBridgeCallData",
          "type": "uint256"
        },
        {
          "indexed": true,
          "internalType": "uint256",
          "name": "nonce",
          "type": "uint256"
        },
        {
          "indexed": false,
          "internalType": "uint256",
          "name": "totalInputValue",
          "type": "uint256"
        }
      ],
      "name": "AsyncDefiBridgeProcessed",
      "type": "event"
    },
    {
      "anonymous": false,
      "inputs": [
        {
          "indexed": true,
          "internalType": "uint256",
          "name": "bridgeAddressId",
          "type": "uint256"
        },
        {
          "indexed": true,
          "internalType": "address",
          "name": "bridgeAddress",
          "type": "address"
        },
        {
          "indexed": false,
          "internalType": "uint256",
          "name": "bridgeGasLimit",
          "type": "uint256"
        }
      ],
      "name": "BridgeAdded",
      "type": "event"
    },
    {
      "anonymous": false,
      "inputs": [
        {
          "indexed": false,
          "internalType": "bool",
          "name": "isCapped",
          "type": "bool"
        }
      ],
      "name": "CappedUpdated",
      "type": "event"
    },
    {
      "anonymous": false,
      "inputs": [
        {
          "indexed": true,
          "internalType": "uint256",
          "name": "encodedBridgeCallData",
          "type": "uint256"
        },
        {
          "indexed": true,
          "internalType": "uint256",
          "name": "nonce",
          "type": "uint256"
        },
        {
          "indexed": false,
          "internalType": "uint256",
          "name": "totalInputValue",
          "type": "uint256"
        },
        {
          "indexed": false,
          "internalType": "uint256",
          "name": "totalOutputValueA",
          "type": "uint256"
        },
        {
          "indexed": false,
          "internalType": "uint256",
          "name": "totalOutputValueB",
          "type": "uint256"
        },
        {
          "indexed": false,
          "internalType": "bool",
          "name": "result",
          "type": "bool"
        },
        {
          "indexed": false,
          "internalType": "bytes",
          "name": "errorReason",
          "type": "bytes"
        }
      ],
      "name": "DefiBridgeProcessed",
      "type": "event"
    },
    {
      "anonymous": false,
      "inputs": [
        {
          "indexed": false,
          "internalType": "address",
          "name": "defiBridgeProxy",
          "type": "address"
        }
      ],
      "name": "DefiBridgeProxyUpdated",
      "type": "event"
    },
    {
      "anonymous": false,
      "inputs": [
        {
          "indexed": false,
          "internalType": "uint32",
          "name": "delay",
          "type": "uint32"
        }
      ],
      "name": "DelayBeforeEscapeHatchUpdated",
      "type": "event"
    },
    {
      "anonymous": false,
      "inputs": [
        {
          "indexed": true,
          "internalType": "uint256",
          "name": "assetId",
          "type": "uint256"
        },
        {
          "indexed": true,
          "internalType": "address",
          "name": "depositorAddress",
          "type": "address"
        },
        {
          "indexed": false,
          "internalType": "uint256",
          "name": "depositValue",
          "type": "uint256"
        }
      ],
      "name": "Deposit",
      "type": "event"
    },
    {
      "anonymous": false,
      "inputs": [
        {
          "indexed": true,
          "internalType": "uint256",
          "name": "assetId",
          "type": "uint256"
        },
        {
          "indexed": false,
          "internalType": "uint256",
          "name": "value",
          "type": "uint256"
        }
      ],
      "name": "FeeTransferred",
      "type": "event"
    },
    {
      "anonymous": false,
      "inputs": [
        {
          "indexed": false,
          "internalType": "uint8",
          "name": "version",
          "type": "uint8"
        }
      ],
      "name": "Initialized",
      "type": "event"
    },
    {
      "anonymous": false,
      "inputs": [
        {
          "indexed": true,
          "internalType": "uint256",
          "name": "rollupId",
          "type": "uint256"
        },
        {
          "indexed": false,
          "internalType": "uint256",
          "name": "chunk",
          "type": "uint256"
        },
        {
          "indexed": false,
          "internalType": "uint256",
          "name": "totalChunks",
          "type": "uint256"
        },
        {
          "indexed": false,
          "internalType": "address",
          "name": "sender",
          "type": "address"
        }
      ],
      "name": "OffchainData",
      "type": "event"
    },
    {
      "anonymous": false,
      "inputs": [
        {
          "indexed": false,
          "internalType": "address",
          "name": "account",
          "type": "address"
        }
      ],
      "name": "Paused",
      "type": "event"
    },
    {
      "anonymous": false,
      "inputs": [
        {
          "indexed": true,
          "internalType": "bytes32",
          "name": "role",
          "type": "bytes32"
        },
        {
          "indexed": true,
          "internalType": "bytes32",
          "name": "previousAdminRole",
          "type": "bytes32"
        },
        {
          "indexed": true,
          "internalType": "bytes32",
          "name": "newAdminRole",
          "type": "bytes32"
        }
      ],
      "name": "RoleAdminChanged",
      "type": "event"
    },
    {
      "anonymous": false,
      "inputs": [
        {
          "indexed": true,
          "internalType": "bytes32",
          "name": "role",
          "type": "bytes32"
        },
        {
          "indexed": true,
          "internalType": "address",
          "name": "account",
          "type": "address"
        },
        {
          "indexed": true,
          "internalType": "address",
          "name": "sender",
          "type": "address"
        }
      ],
      "name": "RoleGranted",
      "type": "event"
    },
    {
      "anonymous": false,
      "inputs": [
        {
          "indexed": true,
          "internalType": "bytes32",
          "name": "role",
          "type": "bytes32"
        },
        {
          "indexed": true,
          "internalType": "address",
          "name": "account",
          "type": "address"
        },
        {
          "indexed": true,
          "internalType": "address",
          "name": "sender",
          "type": "address"
        }
      ],
      "name": "RoleRevoked",
      "type": "event"
    },
    {
      "anonymous": false,
      "inputs": [
        {
          "indexed": true,
          "internalType": "uint256",
          "name": "rollupId",
          "type": "uint256"
        },
        {
          "indexed": false,
          "internalType": "bytes32[]",
          "name": "nextExpectedDefiHashes",
          "type": "bytes32[]"
        },
        {
          "indexed": false,
          "internalType": "address",
          "name": "sender",
          "type": "address"
        }
      ],
      "name": "RollupProcessed",
      "type": "event"
    },
    {
      "anonymous": false,
      "inputs": [
        {
          "indexed": true,
          "internalType": "address",
          "name": "providerAddress",
          "type": "address"
        },
        {
          "indexed": false,
          "internalType": "bool",
          "name": "valid",
          "type": "bool"
        }
      ],
      "name": "RollupProviderUpdated",
      "type": "event"
    },
    {
      "anonymous": false,
      "inputs": [
        {
          "indexed": false,
          "internalType": "address",
          "name": "account",
          "type": "address"
        }
      ],
      "name": "Unpaused",
      "type": "event"
    },
    {
      "anonymous": false,
      "inputs": [
        {
          "indexed": true,
          "internalType": "address",
          "name": "verifierAddress",
          "type": "address"
        }
      ],
      "name": "VerifierUpdated",
      "type": "event"
    },
    {
      "inputs": [],
      "name": "AAVE_ADMIN_ROLE",
      "outputs": [
        {
          "internalType": "bytes32",
          "name": "",
          "type": "bytes32"
        }
      ],
      "stateMutability": "view",
      "type": "function"
    },
    {
      "inputs": [],
      "name": "DEFAULT_ADMIN_ROLE",
      "outputs": [
        {
          "internalType": "bytes32",
          "name": "",
          "type": "bytes32"
        }
      ],
      "stateMutability": "view",
      "type": "function"
    },
    {
      "inputs": [],
      "name": "EMERGENCY_ROLE",
      "outputs": [
        {
          "internalType": "bytes32",
          "name": "",
          "type": "bytes32"
        }
      ],
      "stateMutability": "view",
      "type": "function"
    },
    {
      "inputs": [],
      "name": "LISTER_ROLE",
      "outputs": [
        {
          "internalType": "bytes32",
          "name": "",
          "type": "bytes32"
        }
      ],
      "stateMutability": "view",
      "type": "function"
    },
    {
      "inputs": [],
      "name": "OWNER_ROLE",
      "outputs": [
        {
          "internalType": "bytes32",
          "name": "",
          "type": "bytes32"
        }
      ],
      "stateMutability": "view",
      "type": "function"
    },
    {
      "inputs": [],
      "name": "RESUME_ROLE",
      "outputs": [
        {
          "internalType": "bytes32",
          "name": "",
          "type": "bytes32"
        }
      ],
      "stateMutability": "view",
      "type": "function"
    },
    {
      "inputs": [
        {
          "internalType": "uint256",
          "name": "",
          "type": "uint256"
        }
      ],
      "name": "aaveAssetDeposited",
      "outputs": [
        {
          "internalType": "uint256",
          "name": "",
          "type": "uint256"
        }
      ],
      "stateMutability": "view",
      "type": "function"
    },
    {
      "inputs": [],
      "name": "aavePoolProxy",
      "outputs": [
        {
          "internalType": "address",
          "name": "",
          "type": "address"
        }
      ],
      "stateMutability": "view",
      "type": "function"
    },
    {
      "inputs": [],
      "name": "allowThirdPartyContracts",
      "outputs": [
        {
          "internalType": "bool",
          "name": "",
          "type": "bool"
        }
      ],
      "stateMutability": "view",
      "type": "function"
    },
    {
      "inputs": [
        {
          "internalType": "bytes32",
          "name": "_proofHash",
          "type": "bytes32"
        }
      ],
      "name": "approveProof",
      "outputs": [],
      "stateMutability": "nonpayable",
      "type": "function"
    },
    {
      "inputs": [
        {
          "internalType": "uint256",
          "name": "",
          "type": "uint256"
        }
      ],
      "name": "assetGasLimits",
      "outputs": [
        {
          "internalType": "uint256",
          "name": "",
          "type": "uint256"
        }
      ],
      "stateMutability": "view",
      "type": "function"
    },
    {
      "inputs": [
        {
          "internalType": "uint256",
          "name": "",
          "type": "uint256"
        }
      ],
      "name": "asyncDefiInteractionHashes",
      "outputs": [
        {
          "internalType": "bytes32",
          "name": "",
          "type": "bytes32"
        }
      ],
      "stateMutability": "view",
      "type": "function"
    },
    {
      "inputs": [
        {
          "internalType": "uint256",
          "name": "",
          "type": "uint256"
        }
      ],
      "name": "bridgeGasLimits",
      "outputs": [
        {
          "internalType": "uint256",
          "name": "",
          "type": "uint256"
        }
      ],
      "stateMutability": "view",
      "type": "function"
    },
    {
      "inputs": [
        {
          "internalType": "uint256",
          "name": "",
          "type": "uint256"
        }
      ],
      "name": "caps",
      "outputs": [
        {
          "internalType": "uint128",
          "name": "available",
          "type": "uint128"
        },
        {
          "internalType": "uint32",
          "name": "lastUpdatedTimestamp",
          "type": "uint32"
        },
        {
          "internalType": "uint32",
          "name": "pendingCap",
          "type": "uint32"
        },
        {
          "internalType": "uint32",
          "name": "dailyCap",
          "type": "uint32"
        },
        {
          "internalType": "uint8",
          "name": "precision",
          "type": "uint8"
        }
      ],
      "stateMutability": "view",
      "type": "function"
    },
    {
      "inputs": [],
      "name": "defiBridgeProxy",
      "outputs": [
        {
          "internalType": "address",
          "name": "",
          "type": "address"
        }
      ],
      "stateMutability": "view",
      "type": "function"
    },
    {
      "inputs": [
        {
          "internalType": "uint256",
          "name": "",
          "type": "uint256"
        }
      ],
      "name": "defiInteractionHashes",
      "outputs": [
        {
          "internalType": "bytes32",
          "name": "",
          "type": "bytes32"
        }
      ],
      "stateMutability": "view",
      "type": "function"
    },
    {
      "inputs": [],
      "name": "delayBeforeEscapeHatch",
      "outputs": [
        {
          "internalType": "uint32",
          "name": "",
          "type": "uint32"
        }
      ],
      "stateMutability": "view",
      "type": "function"
    },
    {
      "inputs": [
        {
          "internalType": "uint256",
          "name": "_assetId",
          "type": "uint256"
        },
        {
          "internalType": "uint256",
          "name": "_amount",
          "type": "uint256"
        },
        {
          "internalType": "address",
          "name": "_owner",
          "type": "address"
        },
        {
          "internalType": "bytes32",
          "name": "_proofHash",
          "type": "bytes32"
        }
      ],
      "name": "depositPendingFunds",
      "outputs": [],
      "stateMutability": "payable",
      "type": "function"
    },
    {
      "inputs": [
        {
          "internalType": "address",
          "name": "",
          "type": "address"
        },
        {
          "internalType": "bytes32",
          "name": "",
          "type": "bytes32"
        }
      ],
      "name": "depositProofApprovals",
      "outputs": [
        {
          "internalType": "bool",
          "name": "",
          "type": "bool"
        }
      ],
      "stateMutability": "view",
      "type": "function"
    },
    {
      "inputs": [
        {
          "internalType": "uint256",
          "name": "_assetId",
          "type": "uint256"
        },
        {
          "internalType": "uint256",
          "name": "_amount",
          "type": "uint256"
        }
      ],
      "name": "depositToLP",
      "outputs": [],
      "stateMutability": "nonpayable",
      "type": "function"
    },
    {
      "inputs": [],
      "name": "escapeBlockLowerBound",
      "outputs": [
        {
          "internalType": "uint256",
          "name": "",
          "type": "uint256"
        }
      ],
      "stateMutability": "view",
      "type": "function"
    },
    {
      "inputs": [],
      "name": "escapeBlockUpperBound",
      "outputs": [
        {
          "internalType": "uint256",
          "name": "",
          "type": "uint256"
        }
      ],
      "stateMutability": "view",
      "type": "function"
    },
    {
      "inputs": [
        {
          "internalType": "uint256",
          "name": "",
          "type": "uint256"
        }
      ],
      "name": "ethPayments",
      "outputs": [
        {
          "internalType": "uint256",
          "name": "",
          "type": "uint256"
        }
      ],
      "stateMutability": "view",
      "type": "function"
    },
    {
      "inputs": [],
      "name": "getAsyncDefiInteractionHashesLength",
      "outputs": [
        {
          "internalType": "uint256",
          "name": "",
          "type": "uint256"
        }
      ],
      "stateMutability": "view",
      "type": "function"
    },
    {
      "inputs": [],
      "name": "getCapped",
      "outputs": [
        {
          "internalType": "bool",
          "name": "capped",
          "type": "bool"
        }
      ],
      "stateMutability": "view",
      "type": "function"
    },
    {
      "inputs": [],
      "name": "getDataSize",
      "outputs": [
        {
          "internalType": "uint256",
          "name": "dataSize",
          "type": "uint256"
        }
      ],
      "stateMutability": "view",
      "type": "function"
    },
    {
      "inputs": [],
      "name": "getDefiInteractionHashesLength",
      "outputs": [
        {
          "internalType": "uint256",
          "name": "",
          "type": "uint256"
        }
      ],
      "stateMutability": "view",
      "type": "function"
    },
    {
      "inputs": [],
      "name": "getEscapeHatchStatus",
      "outputs": [
        {
          "internalType": "bool",
          "name": "",
          "type": "bool"
        },
        {
          "internalType": "uint256",
          "name": "",
          "type": "uint256"
        }
      ],
      "stateMutability": "view",
      "type": "function"
    },
    {
      "inputs": [],
      "name": "getImplementationVersion",
      "outputs": [
        {
          "internalType": "uint8",
          "name": "version",
          "type": "uint8"
        }
      ],
      "stateMutability": "view",
      "type": "function"
    },
    {
      "inputs": [
        {
          "internalType": "uint256",
          "name": "_assetId",
          "type": "uint256"
        }
      ],
      "name": "getInterestBalance",
      "outputs": [
        {
          "internalType": "uint256",
          "name": "",
          "type": "uint256"
        }
      ],
      "stateMutability": "view",
      "type": "function"
    },
    {
      "inputs": [],
      "name": "getPendingDefiInteractionHashesLength",
      "outputs": [
        {
          "internalType": "uint256",
          "name": "",
          "type": "uint256"
        }
      ],
      "stateMutability": "view",
      "type": "function"
    },
    {
      "inputs": [
        {
          "internalType": "bytes32",
          "name": "role",
          "type": "bytes32"
        }
      ],
      "name": "getRoleAdmin",
      "outputs": [
        {
          "internalType": "bytes32",
          "name": "",
          "type": "bytes32"
        }
      ],
      "stateMutability": "view",
      "type": "function"
    },
    {
      "inputs": [
        {
          "internalType": "uint256",
          "name": "_assetId",
          "type": "uint256"
        }
      ],
      "name": "getSupportedAsset",
      "outputs": [
        {
          "internalType": "address",
          "name": "",
          "type": "address"
        }
      ],
      "stateMutability": "view",
      "type": "function"
    },
    {
      "inputs": [],
      "name": "getSupportedAssetsLength",
      "outputs": [
        {
          "internalType": "uint256",
          "name": "",
          "type": "uint256"
        }
      ],
      "stateMutability": "view",
      "type": "function"
    },
    {
      "inputs": [
        {
          "internalType": "uint256",
          "name": "_bridgeAddressId",
          "type": "uint256"
        }
      ],
      "name": "getSupportedBridge",
      "outputs": [
        {
          "internalType": "address",
          "name": "",
          "type": "address"
        }
      ],
      "stateMutability": "view",
      "type": "function"
    },
    {
      "inputs": [],
      "name": "getSupportedBridgesLength",
      "outputs": [
        {
          "internalType": "uint256",
          "name": "",
          "type": "uint256"
        }
      ],
      "stateMutability": "view",
      "type": "function"
    },
    {
      "inputs": [
        {
          "internalType": "bytes32",
          "name": "role",
          "type": "bytes32"
        },
        {
          "internalType": "address",
          "name": "account",
          "type": "address"
        }
      ],
      "name": "grantRole",
      "outputs": [],
      "stateMutability": "nonpayable",
      "type": "function"
    },
    {
      "inputs": [
        {
          "internalType": "bytes32",
          "name": "role",
          "type": "bytes32"
        },
        {
          "internalType": "address",
          "name": "account",
          "type": "address"
        }
      ],
      "name": "hasRole",
      "outputs": [
        {
          "internalType": "bool",
          "name": "",
          "type": "bool"
        }
      ],
      "stateMutability": "view",
      "type": "function"
    },
    {
      "inputs": [
        {
          "internalType": "address",
          "name": "_aavePoolProxy",
          "type": "address"
        },
        {
          "internalType": "address",
          "name": "_nativeWrappedToken",
          "type": "address"
        }
      ],
      "name": "initAave",
      "outputs": [],
      "stateMutability": "nonpayable",
      "type": "function"
    },
    {
      "inputs": [],
      "name": "initialize",
      "outputs": [],
      "stateMutability": "nonpayable",
      "type": "function"
    },
    {
      "inputs": [],
      "name": "lastRollupTimeStamp",
      "outputs": [
        {
          "internalType": "uint32",
          "name": "",
          "type": "uint32"
        }
      ],
      "stateMutability": "view",
      "type": "function"
    },
    {
      "inputs": [],
      "name": "nativeWrappedToken",
      "outputs": [
        {
          "internalType": "address",
          "name": "",
          "type": "address"
        }
      ],
      "stateMutability": "view",
      "type": "function"
    },
    {
      "inputs": [
        {
          "internalType": "uint256",
          "name": "_rollupId",
          "type": "uint256"
        },
        {
          "internalType": "uint256",
          "name": "_chunk",
          "type": "uint256"
        },
        {
          "internalType": "uint256",
          "name": "_totalChunks",
          "type": "uint256"
        },
        {
          "internalType": "bytes",
          "name": "",
          "type": "bytes"
        }
      ],
      "name": "offchainData",
      "outputs": [],
      "stateMutability": "nonpayable",
      "type": "function"
    },
    {
      "inputs": [],
      "name": "pause",
      "outputs": [],
      "stateMutability": "nonpayable",
      "type": "function"
    },
    {
      "inputs": [],
      "name": "paused",
      "outputs": [
        {
          "internalType": "bool",
          "name": "",
          "type": "bool"
        }
      ],
      "stateMutability": "view",
      "type": "function"
    },
    {
      "inputs": [
        {
          "internalType": "uint256",
          "name": "",
          "type": "uint256"
        }
      ],
      "name": "pendingDefiInteractions",
      "outputs": [
        {
          "internalType": "uint256",
          "name": "encodedBridgeCallData",
          "type": "uint256"
        },
        {
          "internalType": "uint256",
          "name": "totalInputValue",
          "type": "uint256"
        }
      ],
      "stateMutability": "view",
      "type": "function"
    },
    {
      "inputs": [],
      "name": "prevDefiInteractionsHash",
      "outputs": [
        {
          "internalType": "bytes32",
          "name": "",
          "type": "bytes32"
        }
      ],
      "stateMutability": "view",
      "type": "function"
    },
    {
      "inputs": [
        {
          "internalType": "uint256",
          "name": "_interactionNonce",
          "type": "uint256"
        }
      ],
      "name": "processAsyncDefiInteraction",
      "outputs": [
        {
          "internalType": "bool",
          "name": "",
          "type": "bool"
        }
      ],
      "stateMutability": "nonpayable",
      "type": "function"
    },
    {
      "inputs": [
        {
          "internalType": "bytes",
          "name": "",
          "type": "bytes"
        },
        {
          "internalType": "bytes",
          "name": "_signatures",
          "type": "bytes"
        }
      ],
      "name": "processRollup",
      "outputs": [],
      "stateMutability": "nonpayable",
      "type": "function"
    },
    {
      "inputs": [
        {
          "internalType": "uint256",
          "name": "_interactionNonce",
          "type": "uint256"
        }
      ],
      "name": "receiveEthFromBridge",
      "outputs": [],
      "stateMutability": "payable",
      "type": "function"
    },
    {
      "inputs": [
        {
          "internalType": "bytes32",
          "name": "role",
          "type": "bytes32"
        },
        {
          "internalType": "address",
          "name": "account",
          "type": "address"
        }
      ],
      "name": "renounceRole",
      "outputs": [],
      "stateMutability": "nonpayable",
      "type": "function"
    },
    {
      "inputs": [
        {
          "internalType": "bytes32",
          "name": "role",
          "type": "bytes32"
        },
        {
          "internalType": "address",
          "name": "account",
          "type": "address"
        }
      ],
      "name": "revokeRole",
      "outputs": [],
      "stateMutability": "nonpayable",
      "type": "function"
    },
    {
      "inputs": [
        {
          "internalType": "address",
          "name": "",
          "type": "address"
        }
      ],
      "name": "rollupProviders",
      "outputs": [
        {
          "internalType": "bool",
          "name": "",
          "type": "bool"
        }
      ],
      "stateMutability": "view",
      "type": "function"
    },
    {
      "inputs": [],
      "name": "rollupStateHash",
      "outputs": [
        {
          "internalType": "bytes32",
          "name": "",
          "type": "bytes32"
        }
      ],
      "stateMutability": "view",
      "type": "function"
    },
    {
      "inputs": [
        {
          "internalType": "bool",
          "name": "_allowThirdPartyContracts",
          "type": "bool"
        }
      ],
      "name": "setAllowThirdPartyContracts",
      "outputs": [],
      "stateMutability": "nonpayable",
      "type": "function"
    },
    {
      "inputs": [
        {
          "internalType": "uint256",
          "name": "_assetId",
          "type": "uint256"
        },
        {
          "internalType": "uint32",
          "name": "_pendingCap",
          "type": "uint32"
        },
        {
          "internalType": "uint32",
          "name": "_dailyCap",
          "type": "uint32"
        },
        {
          "internalType": "uint8",
          "name": "_precision",
          "type": "uint8"
        }
      ],
      "name": "setAssetCap",
      "outputs": [],
      "stateMutability": "nonpayable",
      "type": "function"
    },
    {
      "inputs": [
        {
          "internalType": "bool",
          "name": "_isCapped",
          "type": "bool"
        }
      ],
      "name": "setCapped",
      "outputs": [],
      "stateMutability": "nonpayable",
      "type": "function"
    },
    {
      "inputs": [
        {
          "internalType": "address",
          "name": "_defiBridgeProxy",
          "type": "address"
        }
      ],
      "name": "setDefiBridgeProxy",
      "outputs": [],
      "stateMutability": "nonpayable",
      "type": "function"
    },
    {
      "inputs": [
        {
          "internalType": "uint32",
          "name": "_delay",
          "type": "uint32"
        }
      ],
      "name": "setDelayBeforeEscapeHatch",
      "outputs": [],
      "stateMutability": "nonpayable",
      "type": "function"
    },
    {
      "inputs": [
        {
          "internalType": "address",
          "name": "_provider",
          "type": "address"
        },
        {
          "internalType": "bool",
          "name": "_valid",
          "type": "bool"
        }
      ],
      "name": "setRollupProvider",
      "outputs": [],
      "stateMutability": "nonpayable",
      "type": "function"
    },
    {
      "inputs": [
        {
          "internalType": "address",
          "name": "_token",
          "type": "address"
        },
        {
          "internalType": "uint256",
          "name": "_gasLimit",
          "type": "uint256"
        }
      ],
      "name": "setSupportedAsset",
      "outputs": [],
      "stateMutability": "nonpayable",
      "type": "function"
    },
    {
      "inputs": [
        {
          "internalType": "address",
          "name": "_bridge",
          "type": "address"
        },
        {
          "internalType": "uint256",
          "name": "_gasLimit",
          "type": "uint256"
        }
      ],
      "name": "setSupportedBridge",
      "outputs": [],
      "stateMutability": "nonpayable",
      "type": "function"
    },
    {
      "inputs": [
        {
          "internalType": "address",
          "name": "_verifier",
          "type": "address"
        }
      ],
      "name": "setVerifier",
      "outputs": [],
      "stateMutability": "nonpayable",
      "type": "function"
    },
    {
      "inputs": [
        {
          "internalType": "bytes4",
          "name": "interfaceId",
          "type": "bytes4"
        }
      ],
      "name": "supportsInterface",
      "outputs": [
        {
          "internalType": "bool",
          "name": "",
          "type": "bool"
        }
      ],
      "stateMutability": "view",
      "type": "function"
    },
    {
      "inputs": [],
      "name": "unpause",
      "outputs": [],
      "stateMutability": "nonpayable",
      "type": "function"
    },
    {
      "inputs": [
        {
          "internalType": "uint256",
          "name": "",
          "type": "uint256"
        },
        {
          "internalType": "address",
          "name": "",
          "type": "address"
        }
      ],
      "name": "userPendingDeposits",
      "outputs": [
        {
          "internalType": "uint256",
          "name": "",
          "type": "uint256"
        }
      ],
      "stateMutability": "view",
      "type": "function"
    },
    {
      "inputs": [],
      "name": "verifier",
      "outputs": [
        {
          "internalType": "address",
          "name": "",
          "type": "address"
        }
      ],
      "stateMutability": "view",
      "type": "function"
    },
    {
      "inputs": [
        {
          "internalType": "uint256",
          "name": "_assetId",
          "type": "uint256"
        },
        {
          "internalType": "uint256",
          "name": "_amount",
          "type": "uint256"
        },
        {
          "internalType": "bool",
          "name": "_userRequested",
          "type": "bool"
        }
      ],
      "name": "withdrawFromLP",
      "outputs": [],
      "stateMutability": "nonpayable",
      "type": "function"
    },
    {
      "inputs": [
        {
          "internalType": "uint256",
          "name": "_assetId",
          "type": "uint256"
        }
      ],
      "name": "withdrawInterest",
      "outputs": [],
      "stateMutability": "nonpayable",
      "type": "function"
    },
    {
      "stateMutability": "payable",
      "type": "receive"
    }
  ],
  "bytecode": {
    "object": "0x60c06040523480156200001157600080fd5b50604051620059273803806200592783398101604081905262000034916200014e565b811580620000425750808210155b15620000615760405163b37657e760e01b815260040160405180910390fd5b6200006b6200008d565b6002805460ff60e81b1916600160e81b17905560809190915260a05262000173565b600054610100900460ff1615620000fa5760405162461bcd60e51b815260206004820152602760248201527f496e697469616c697a61626c653a20636f6e747261637420697320696e697469604482015266616c697a696e6760c81b606482015260840160405180910390fd5b60005460ff908116146200014c576000805460ff191660ff9081179091556040519081527f7f26b83ff96e1f2b6a682f133852f6798a09c465da95921460cefb38474024989060200160405180910390a15b565b600080604083850312156200016257600080fd5b505080516020909101519092909150565b60805160a051615764620001c360003960008181610d3901528181612cdf01528181612d3e01528181612d690152612d99015260008181610b4301528181612cbb0152612dc401526157646000f3fe60806040526004361061044e5760003560e01c80638129fc1c11610243578063be71f8a411610143578063dcefed85116100bb578063e4301ec51161008a578063f21c69bb1161006f578063f21c69bb14610e87578063f81cccbe14610eb4578063fb0ce18514610ed457600080fd5b8063e4301ec514610e33578063e58378bb14610e5357600080fd5b8063dcefed8514610d92578063deb26b9414610dbf578063e0d16c3214610df3578063e393635514610e1357600080fd5b8063caa3455311610112578063d547741f116100f7578063d547741f14610d07578063d8ba363714610d27578063db1533aa14610d5b57600080fd5b8063caa3455314610cba578063cd12bf6214610cda57600080fd5b8063be71f8a414610ba1578063c0fd22b714610bcd578063c37c656d14610be2578063c4a7a35f14610c9557600080fd5b80639b60ae2b116101d6578063a7a8fee5116101a5578063b045009c1161018a578063b045009c14610b31578063b3a07b9814610b65578063bc327e4014610b8557600080fd5b8063a7a8fee514610afc578063a8d1eae714610b1c57600080fd5b80639b60ae2b14610a7b578063a217fddf14610a9a578063a2b096e414610aaf578063a33dc5e714610acf57600080fd5b80638afceb39116102125780638afceb39146109ab57806391d14854146109f457806391dfe78f14610a3a578063999e361414610a5a57600080fd5b80638129fc1c146109415780638188f468146109565780638456cb59146109765780638666c0a91461098b57600080fd5b80632f2ff15d1161034e5780635ad1def3116102e1578063781e0432116102b05780637baf7118116102955780637baf7118146108ec5780637d036b271461090c5780637ff48afb1461092e57600080fd5b8063781e04321461089b5780637ba3e7ae146108d657600080fd5b80635ad1def31461080c5780635c975abb1461083c57806360a8b18a1461085b5780636a0214a91461087b57600080fd5b80633feeeabb1161031d5780633feeeabb146107785780635274098d146107985780635437988d146107cc578063599eafb3146107ec57600080fd5b80632f2ff15d146106eb57806336568abe1461070b57806336ce0a921461072b5780633f4ba83a1461076357600080fd5b80631ab9c603116103e1578063248a9ca3116103b057806328f0cbc01161039557806328f0cbc0146106795780632b7ac3f3146106995780632de03aa1146106b757600080fd5b8063248a9ca314610628578063258eed5a1461065957600080fd5b80631ab9c6031461058c57806320825443146105a257806320a23dd3146105c257806320df4359146105f457600080fd5b806308669aab1161041d57806308669aab146105015780630ceee68c146105215780630d698f6f1461055957806312a536231461057957600080fd5b806301ffc9a71461045a57806302f6ccd41461048f57806303561119146104b257806303a7f1e9146104df57600080fd5b3661045557005b600080fd5b34801561046657600080fd5b5061047a610475366004614db8565b610ef4565b60405190151581526020015b60405180910390f35b34801561049b57600080fd5b506104a4610f8d565b604051908152602001610486565b3480156104be57600080fd5b506104a46104cd366004614dfa565b600e6020526000908152604090205481565b3480156104eb57600080fd5b506104ff6104fa366004614e13565b610fd1565b005b34801561050d57600080fd5b506104ff61051c366004614dfa565b611279565b34801561052d57600080fd5b50600a54610541906001600160a01b031681565b6040516001600160a01b039091168152602001610486565b34801561056557600080fd5b506104ff610574366004614e43565b6113b5565b6104ff610587366004614dfa565b6114f8565b34801561059857600080fd5b506104a460095481565b3480156105ae57600080fd5b506104ff6105bd366004614ea9565b611511565b3480156105ce57600080fd5b506011546105df9063ffffffff1681565b60405163ffffffff9091168152602001610486565b34801561060057600080fd5b506104a47fbf233dd2aafeb4d50879c4aa5c81e96d92f6e6945c906a58f9f2d1c1631b4b2681565b34801561063457600080fd5b506104a4610643366004614dfa565b6000908152600160208190526040909120015490565b34801561066557600080fd5b506104ff610674366004614f1f565b611585565b34801561068557600080fd5b506104a4610694366004614dfa565b61164d565b3480156106a557600080fd5b506002546001600160a01b0316610541565b3480156106c357600080fd5b506104a47f2fc10cc8ae19568712f7a176fb4978616a610650813c9d05326c34abb62749c781565b3480156106f757600080fd5b506104ff610706366004614f58565b61166e565b34801561071757600080fd5b506104ff610726366004614f58565b611699565b34801561073757600080fd5b506104a4610746366004614f58565b600760209081526000928352604080842090915290825290205481565b34801561076f57600080fd5b506104ff61172a565b34801561078457600080fd5b50601454610541906001600160a01b031681565b3480156107a457600080fd5b506104a47f5118de1a30ff344789e5ded0da8b3c32eb7ad8a7d7df2c5d3f3ddb48061a6d8381565b3480156107d857600080fd5b506104ff6107e7366004614f7d565b611847565b3480156107f857600080fd5b506104a4610807366004614dfa565b611958565b34801561081857600080fd5b5061047a610827366004614f7d565b600b6020526000908152604090205460ff1681565b34801561084857600080fd5b50600254600160e81b900460ff1661047a565b34801561086757600080fd5b50610541610876366004614dfa565b611b21565b34801561088757600080fd5b506104ff610896366004614fae565b611bcd565b3480156108a757600080fd5b5061047a6108b6366004614fc9565b600860209081526000928352604080842090915290825290205460ff1681565b3480156108e257600080fd5b506104a460105481565b3480156108f857600080fd5b50600254600160c01b900461ffff166104a4565b34801561091857600080fd5b50600254600160a01b900463ffffffff166104a4565b6104ff61093c366004614ff5565b611cb5565b34801561094d57600080fd5b506104ff611f1d565b34801561096257600080fd5b5061047a610971366004614dfa565b6123aa565b34801561098257600080fd5b506104ff61247f565b34801561099757600080fd5b506104ff6109a6366004614fc9565b61258a565b3480156109b757600080fd5b506109df6109c6366004614dfa565b600c602052600090815260409020805460019091015482565b60408051928352602083019190915201610486565b348015610a0057600080fd5b5061047a610a0f366004614f58565b60009182526001602090815260408084206001600160a01b0393909316845291905290205460ff1690565b348015610a4657600080fd5b506104ff610a55366004615034565b61268b565b348015610a6657600080fd5b50600a5461047a90600160a01b900460ff1681565b348015610a8757600080fd5b50600254600160f01b900460ff1661047a565b348015610aa657600080fd5b506104a4600081565b348015610abb57600080fd5b506104ff610aca366004614e43565b61277c565b348015610adb57600080fd5b506104a4610aea366004614dfa565b60066020526000908152604090205481565b348015610b0857600080fd5b506104ff610b17366004615062565b612860565b348015610b2857600080fd5b506004546104a4565b348015610b3d57600080fd5b506104a47f000000000000000000000000000000000000000000000000000000000000000081565b348015610b7157600080fd5b506104ff610b8036600461509b565b612aa1565b348015610b9157600080fd5b5060405160038152602001610486565b348015610bad57600080fd5b50610bb6612cb4565b604080519215158352602083019190915201610486565b348015610bd957600080fd5b506003546104a4565b348015610bee57600080fd5b50610c54610bfd366004614dfa565b6012602052600090815260409020546001600160801b0381169063ffffffff7001000000000000000000000000000000008204811691600160a01b8104821691600160c01b8204169060ff600160e01b9091041685565b604080516001600160801b03909616865263ffffffff94851660208701529284169285019290925291909116606083015260ff16608082015260a001610486565b348015610ca157600080fd5b506011546105df90640100000000900463ffffffff1681565b348015610cc657600080fd5b506104ff610cd5366004614f7d565b612df5565b348015610ce657600080fd5b506104a4610cf5366004614dfa565b60056020526000908152604090205481565b348015610d1357600080fd5b506104ff610d22366004614f58565b612ef3565b348015610d3357600080fd5b506104a47f000000000000000000000000000000000000000000000000000000000000000081565b348015610d6757600080fd5b506002547a010000000000000000000000000000000000000000000000000000900461ffff166104a4565b348015610d9e57600080fd5b506104a4610dad366004614dfa565b600d6020526000908152604090205481565b348015610dcb57600080fd5b506104a47ff94103142c1baabe9ac2b5d1487bf783de9e69cfeea9a72f5c9c94afd7877b8c81565b348015610dff57600080fd5b50610541610e0e366004614dfa565b612f19565b348015610e1f57600080fd5b506104ff610e2e366004614dfa565b612f53565b348015610e3f57600080fd5b50601554610541906001600160a01b031681565b348015610e5f57600080fd5b506104a47fb19546dff01e856fb3f010c267a7b1c60363cf8a4664e21cc89c26224620214e81565b348015610e9357600080fd5b506104a4610ea2366004614dfa565b600f6020526000908152604090205481565b348015610ec057600080fd5b506104ff610ecf3660046150f0565b612f9e565b348015610ee057600080fd5b506104ff610eef366004614fc9565b613133565b60007fffffffff0000000000000000000000000000000000000000000000000000000082167f7965db0b000000000000000000000000000000000000000000000000000000001480610f8757507f01ffc9a7000000000000000000000000000000000000000000000000000000007fffffffff000000000000000000000000000000000000000000000000000000008316145b92915050565b600254600090610fc89061ffff7a0100000000000000000000000000000000000000000000000000008204811691600160c01b900416615172565b61ffff16905090565b7f5118de1a30ff344789e5ded0da8b3c32eb7ad8a7d7df2c5d3f3ddb48061a6d83610ffb81613390565b6014546001600160a01b0316158061101c57506015546001600160a01b0316155b1561103a5760405163089fe0ff60e11b815260040160405180910390fd5b600060028054600160e01b900460ff169081111561105a5761105a615198565b1461107857604051631e7b117d60e01b815260040160405180910390fd5b6002805460ff60e01b1916600160e11b179055600083156110a15761109c84611b21565b6110ae565b6015546001600160a01b03165b90508361110a57806001600160a01b031663d0e30db0846040518263ffffffff1660e01b81526004016000604051808303818588803b1580156110f057600080fd5b505af1158015611104573d6000803e3d6000fd5b50505050505b6014546040517f095ea7b30000000000000000000000000000000000000000000000000000000081526001600160a01b039182166004820152602481018590529082169063095ea7b3906044016020604051808303816000875af1158015611176573d6000803e3d6000fd5b505050506040513d601f19601f8201168201806040525081019061119a91906151ae565b506014546040517f617ba0370000000000000000000000000000000000000000000000000000000081526001600160a01b03838116600483015260248201869052306044830152600060648301529091169063617ba03790608401600060405180830381600087803b15801561120f57600080fd5b505af1158015611223573d6000803e3d6000fd5b50505050826013858154811061123b5761123b6151cb565b90600052602060002001600082825461125491906151e1565b9091555050600280546000925060ff60e01b1916600160e01b835b0217905550505050565b7fb19546dff01e856fb3f010c267a7b1c60363cf8a4664e21cc89c26224620214e6112a381613390565b6014546001600160a01b031615806112c457506015546001600160a01b0316155b156112e25760405163089fe0ff60e11b815260040160405180910390fd5b600060028054600160e01b900460ff169081111561130257611302615198565b1461132057604051631e7b117d60e01b815260040160405180910390fd5b6002805460ff60e01b1916600160e11b17905533600061133f84611958565b905061134d84826000612860565b83611366576000806000808486617530f1505050611396565b600061137185611b21565b9050611392818484600e60008a81526020019081526020016000205461339d565b5050505b600280546000919060ff60e01b1916600160e01b835b02179055505050565b7fb19546dff01e856fb3f010c267a7b1c60363cf8a4664e21cc89c26224620214e6113df81613390565b600060028054600160e01b900460ff16908111156113ff576113ff615198565b1461141d57604051631e7b117d60e01b815260040160405180910390fd5b60028054819060ff60e01b1916600160e01b820217905550600254600160f01b900460ff161515821515141561145257611396565b811561146e576011805463ffffffff19164263ffffffff161790555b60028054831515600160f01b027fff00ffffffffffffffffffffffffffffffffffffffffffffffffffffffffffff9091161790556040517f99895cad53cbbff374fbe3c76182ad42a6cb1c0c7306d3b6651786e7154ccbe6906114d690841515815260200190565b60405180910390a1600280546000919060ff60e01b1916600160e01b836113ac565b6040516301ddca9760e11b815260040160405180910390fd5b600254600160e81b900460ff161561153c57604051632a6ab56360e21b815260040160405180910390fd5b60408051858152602081018590523381830152905186917fb92710e3fad9222f817fcd828bd1ce3612ad0cd1c8bd5f3a3f4b8d85c4444621919081900360600190a25050505050565b7f5118de1a30ff344789e5ded0da8b3c32eb7ad8a7d7df2c5d3f3ddb48061a6d836115af81613390565b600060028054600160e01b900460ff16908111156115cf576115cf615198565b146115ed57604051631e7b117d60e01b815260040160405180910390fd5b6002805460ff60e01b1916600160e11b81178255601480546001600160a01b0387811673ffffffffffffffffffffffffffffffffffffffff1992831617909255601580549287169290911691909117905560009190600160e01b8361126f565b6013818154811061165d57600080fd5b600091825260209091200154905081565b6000828152600160208190526040909120015461168a81613390565b61169483836133ed565b505050565b6001600160a01b038116331461171c5760405162461bcd60e51b815260206004820152602f60248201527f416363657373436f6e74726f6c3a2063616e206f6e6c792072656e6f756e636560448201527f20726f6c657320666f722073656c66000000000000000000000000000000000060648201526084015b60405180910390fd5b6117268282613474565b5050565b600254600160e81b900460ff1661176d576040517f395fbd0500000000000000000000000000000000000000000000000000000000815260040160405180910390fd5b7f2fc10cc8ae19568712f7a176fb4978616a610650813c9d05326c34abb62749c761179781613390565b600060028054600160e01b900460ff16908111156117b7576117b7615198565b146117d557604051631e7b117d60e01b815260040160405180910390fd5b600280547fffff0000ffffffffffffffffffffffffffffffffffffffffffffffffffffffff16600160e11b1790556040513381527f5db9ee0a495bf2e6ff9c91a7834c1ba4fdd244a5e8aa4e537bd38aeae4b073aa906020015b60405180910390a1506002805460ff60e01b19169055565b7fb19546dff01e856fb3f010c267a7b1c60363cf8a4664e21cc89c26224620214e61187181613390565b600060028054600160e01b900460ff169081111561189157611891615198565b146118af57604051631e7b117d60e01b815260040160405180910390fd5b6002805460ff60e01b1916600160e11b1790556001600160a01b0382163b6118ea576040516310a0493960e11b815260040160405180910390fd5b6002805473ffffffffffffffffffffffffffffffffffffffff19166001600160a01b0384169081179091556040517fd24015cc99cc1700cafca3042840a1d8ac1e3964fd2e0e37ea29c654056ee32790600090a2600280546000919060ff60e01b1916600160e01b836113ac565b6014546000906001600160a01b0316158061197c57506015546001600160a01b0316155b1561199a5760405163089fe0ff60e11b815260040160405180910390fd5b600082156119b0576119ab83611b21565b6119bd565b6015546001600160a01b03165b6014546040517f35ea6a750000000000000000000000000000000000000000000000000000000081526001600160a01b038084166004830152929350600092909116906335ea6a75906024016101e060405180830381865afa158015611a27573d6000803e3d6000fd5b505050506040513d601f19601f82011682018060405250810190611a4b91906152e0565b6101008101519091506001600160a01b0316611a6657600080fd5b60138481548110611a7957611a796151cb565b6000918252602090912001546101008201516040517f70a082310000000000000000000000000000000000000000000000000000000081523060048201526001600160a01b03909116906370a0823190602401602060405180830381865afa158015611ae9573d6000803e3d6000fd5b505050506040513d601f19601f82011682018060405250810190611b0d9190615403565b611b17919061541c565b925050505b919050565b600081631fffffff811115611b4957604051630104ef3360e21b815260040160405180910390fd5b82611b575760009150611bc7565b60006003611b6660018661541c565b81548110611b7657611b766151cb565b6000918252602090912001546001600160a01b0316905080611bc4576040517ffc3be2bc00000000000000000000000000000000000000000000000000000000815260040160405180910390fd5b91505b50919050565b7fb19546dff01e856fb3f010c267a7b1c60363cf8a4664e21cc89c26224620214e611bf781613390565b600060028054600160e01b900460ff1690811115611c1757611c17615198565b14611c3557604051631e7b117d60e01b815260040160405180910390fd5b6002805460ff60e01b1916600160e11b179055601180547fffffffffffffffffffffffffffffffffffffffffffffffff00000000ffffffff1664010000000063ffffffff8516908102919091179091556040519081527f536948e5a71b8ffbb707a6903b99b812c8c291a711ed188e54d36505127d1c35906020016114d6565b600254600160e81b900460ff1615611ce057604051632a6ab56360e21b815260040160405180910390fd5b600060028054600160e01b900460ff1690811115611d0057611d00615198565b14611d1e57604051631e7b117d60e01b815260040160405180910390fd5b6002805460ff60e01b1916600160e11b17905583158015611d3f5750823414155b15611d76576040517ff2be5ced00000000000000000000000000000000000000000000000000000000815260040160405180910390fd5b8315801590611d8457503415155b15611dbb576040517fd08ba85b00000000000000000000000000000000000000000000000000000000815260040160405180910390fd5b611dc68483856134f7565b8015611dd557611dd581612f53565b816001600160a01b0316847feaa18152488ce5959073c9c79c88ca90b3d96c00de1f118cfaad664c3dab06b985604051611e1191815260200190565b60405180910390a38315611efc576000611e2a85611b21565b6040517fdd62ed3e00000000000000000000000000000000000000000000000000000000815233600482015230602482015290915084906001600160a01b0383169063dd62ed3e90604401602060405180830381865afa158015611e92573d6000803e3d6000fd5b505050506040513d601f19601f82011682018060405250810190611eb69190615403565b1015611eee576040517f7bf8af0300000000000000000000000000000000000000000000000000000000815260040160405180910390fd5b611efa813330876138a8565b505b600280546000919060ff60e01b1916600160e01b835b021790555050505050565b6003600054610100900460ff16158015611f3e575060005460ff8083169116105b611fb05760405162461bcd60e51b815260206004820152602e60248201527f496e697469616c697a61626c653a20636f6e747261637420697320616c72656160448201527f647920696e697469616c697a65640000000000000000000000000000000000006064820152608401611713565b806000806101000a81548160ff021916908360ff1602179055506001600060016101000a81548160ff02191690831515021790555060016002600001601e6101000a81548160ff02191690831515021790555042601160006101000a81548163ffffffff021916908363ffffffff1602179055506040518060a0016040528069d3c21bcecceda10000006001600160801b031681526020014263ffffffff16815260200161277463ffffffff168152602001620f424063ffffffff168152602001601260ff168152506012600080815260200190815260200160002060008201518160000160006101000a8154816001600160801b0302191690836001600160801b0316021790555060208201518160000160106101000a81548163ffffffff021916908363ffffffff16021790555060408201518160000160146101000a81548163ffffffff021916908363ffffffff16021790555060608201518160000160186101000a81548163ffffffff021916908363ffffffff160217905550608082015181600001601c6101000a81548160ff021916908360ff1602179055509050506040518060a0016040528069d3c21bcecceda10000006001600160801b031681526020014263ffffffff16815260200161277463ffffffff168152602001620f424063ffffffff168152602001601260ff16815250601260006001815260200190815260200160002060008201518160000160006101000a8154816001600160801b0302191690836001600160801b0316021790555060208201518160000160106101000a81548163ffffffff021916908363ffffffff16021790555060408201518160000160146101000a81548163ffffffff021916908363ffffffff16021790555060608201518160000160186101000a81548163ffffffff021916908363ffffffff160217905550608082015181600001601c6101000a81548160ff021916908360ff1602179055509050507f2c87e4aece114a15933668e808bd3756196c2fb05a4902851081ed8584f8690e6000612774620f42406040516122cb939291909283526020830191909152604082015260600190565b60405180910390a160408051600181526127746020820152620f42408183015290517f2c87e4aece114a15933668e808bd3756196c2fb05a4902851081ed8584f8690e9181900360600190a16013805460018101825560009182527f66de8ffda797e3de9c05e8fc57b3bf0ec28a930d40b0d285d93c06501cf6a0900181905580547fffffffffffffffffffffffffffffffffffffffffffffffffffffffffffff00ff16905560405160ff821681527f7f26b83ff96e1f2b6a682f133852f6798a09c465da95921460cefb38474024989060200160405180910390a150565b600254600090600160e81b900460ff16156123d857604051632a6ab56360e21b815260040160405180910390fd5b600254600160e01b900460ff1660018160028111156123f9576123f9615198565b1415612418576040516301ddca9760e11b815260040160405180910390fd5b600081600281111561242c5761242c615198565b141561246657600280546001919060ff60e01b1916600160e01b835b02179055506040516301ddca9760e11b815260040160405180910390fd5b604051631e7b117d60e01b815260040160405180910390fd5b600254600160e81b900460ff16156124aa57604051632a6ab56360e21b815260040160405180910390fd5b7fbf233dd2aafeb4d50879c4aa5c81e96d92f6e6945c906a58f9f2d1c1631b4b266124d481613390565b600060028054600160e01b900460ff16908111156124f4576124f4615198565b1461251257604051631e7b117d60e01b815260040160405180910390fd5b600280547fffff0000ffffffffffffffffffffffffffffffffffffffffffffffffffffffff167d0102000000000000000000000000000000000000000000000000000000001790556040513381527f62e78cea01bee320cd4e420270b5ea74000d11b0c9f74754ebdbfc544b05a2589060200161182f565b600254600160e81b900460ff16156125b557604051632a6ab56360e21b815260040160405180910390fd5b3360009081527f65ab7acc1bb8390bd4d3ba8eb4987cf212c814cedeacf3ad4b0583b29d65f538602052604090205460ff161580156125fe5750600a54600160a01b900460ff16155b15612635576040517f11d74fb800000000000000000000000000000000000000000000000000000000815260040160405180910390fd5b600060028054600160e01b900460ff169081111561265557612655615198565b1461267357604051631e7b117d60e01b815260040160405180910390fd5b60028054819060ff60e01b1916600160e01b82612448565b7fb19546dff01e856fb3f010c267a7b1c60363cf8a4664e21cc89c26224620214e6126b581613390565b600060028054600160e01b900460ff16908111156126d5576126d5615198565b146126f357604051631e7b117d60e01b815260040160405180910390fd5b6002805460ff60e01b1916600160e11b1790556001600160a01b0383166000818152600b6020908152604091829020805460ff1916861515908117909155825190815291517f46359ce9dbb6c7f9a375b44072210287916d3de725fc8927a8e762047e4a84249281900390910190a2600280546000919060ff60e01b1916600160e01b8361126f565b7fb19546dff01e856fb3f010c267a7b1c60363cf8a4664e21cc89c26224620214e6127a681613390565b600060028054600160e01b900460ff16908111156127c6576127c6615198565b146127e457604051631e7b117d60e01b815260040160405180910390fd5b6002805460ff60e01b1916600160e11b179055600a8054831515600160a01b81027fffffffffffffffffffffff00ffffffffffffffffffffffffffffffffffffffff909216919091179091556040519081527fad6b1fc8881be24fc1ad35119b136f0026a4496e6251980e325ddcf86dab3943906020016114d6565b7f5118de1a30ff344789e5ded0da8b3c32eb7ad8a7d7df2c5d3f3ddb48061a6d8361288a81613390565b6014546001600160a01b031615806128ab57506015546001600160a01b0316155b156128c95760405163089fe0ff60e11b815260040160405180910390fd5b600060028054600160e01b900460ff16908111156128e9576128e9615198565b1461290757604051631e7b117d60e01b815260040160405180910390fd5b6002805460ff60e01b1916600160e11b179055600084156129305761292b85611b21565b61293d565b6015546001600160a01b03165b6014546040517f69328dec0000000000000000000000000000000000000000000000000000000081526001600160a01b038084166004830152602482018890523060448301529293509116906369328dec906064016020604051808303816000875af11580156129b1573d6000803e3d6000fd5b505050506040513d601f19601f820116820180604052508101906129d59190615403565b5084612a4f576040517f2e1a7d4d000000000000000000000000000000000000000000000000000000008152600481018590526001600160a01b03821690632e1a7d4d90602401600060405180830381600087803b158015612a3657600080fd5b505af1158015612a4a573d6000803e3d6000fd5b505050505b8215611efa578360138681548110612a6957612a696151cb565b906000526020600020016000828254612a82919061541c565b9091555050600280546000925060ff60e01b1916600160e01b83611f12565b7ff94103142c1baabe9ac2b5d1487bf783de9e69cfeea9a72f5c9c94afd7877b8c612acb81613390565b600060028054600160e01b900460ff1690811115612aeb57612aeb615198565b14612b0957604051631e7b117d60e01b815260040160405180910390fd5b6002805460ff60e01b1916600160e11b1790556040805160a0810190915280612b4b612b3685600a615517565b612b469063ffffffff8816615526565b613927565b6001600160801b03908116825263ffffffff4281166020808501919091528882166040808601829052898416606080880182905260ff8b81166080998a015260008f8152601287528490208a5181548c8901518d8801518e8701519e909d0151909416600160e01b0260ff60e01b199d8b16600160c01b027fffffffff00000000ffffffffffffffffffffffffffffffffffffffffffffffff9d8c16600160a01b029d909d167fffffffff0000000000000000ffffffffffffffffffffffffffffffffffffffff95909b167001000000000000000000000000000000000273ffffffffffffffffffffffffffffffffffffffff1990921692909b169190911717919091169690961797909717979097169490941790925582518a815290810191909152908101929092527f2c87e4aece114a15933668e808bd3756196c2fb05a4902851081ed8584f8690e910160405180910390a150506002805460ff60e01b19169055505050565b60008043817f0000000000000000000000000000000000000000000000000000000000000000612d047f00000000000000000000000000000000000000000000000000000000000000008461555b565b1015905060008115612d9457601154612d2d9063ffffffff6401000000008204811691166151e1565b421015612d3957600091505b612d637f00000000000000000000000000000000000000000000000000000000000000008461555b565b612d8d907f000000000000000000000000000000000000000000000000000000000000000061541c565b9050612deb565b612dbe7f00000000000000000000000000000000000000000000000000000000000000008461555b565b612de8907f000000000000000000000000000000000000000000000000000000000000000061541c565b90505b9094909350915050565b7fb19546dff01e856fb3f010c267a7b1c60363cf8a4664e21cc89c26224620214e612e1f81613390565b600060028054600160e01b900460ff1690811115612e3f57612e3f615198565b14612e5d57604051631e7b117d60e01b815260040160405180910390fd5b6002805460ff60e01b1916600160e11b1790556001600160a01b0382163b612e98576040516310a0493960e11b815260040160405180910390fd5b600a805473ffffffffffffffffffffffffffffffffffffffff19166001600160a01b0384169081179091556040519081527fc4fc5cbf094d63a6fb20dc7cb9b0236e7dba8c04667182ec259a00a74f959018906020016114d6565b60008281526001602081905260409091200154612f0f81613390565b6116948383613474565b60006004612f2860018461541c565b81548110612f3857612f386151cb565b6000918252602090912001546001600160a01b031692915050565b600254600160e81b900460ff1615612f7e57604051632a6ab56360e21b815260040160405180910390fd5b336000526008602052604060002060205280600052600160406000205550565b600254600160e81b900460ff1615612fc957604051632a6ab56360e21b815260040160405180910390fd5b600060028054600160e01b900460ff1690811115612fe957612fe9615198565b1461300757604051631e7b117d60e01b815260040160405180910390fd5b6002805460ff60e01b1916600160e01b179055336000908152600b602052604090205460ff161561305f57600254600160f01b900460ff161561305a576011805463ffffffff19164263ffffffff161790555b6130a5565b6000613069612cb4565b509050806130a3576040517f83633aab00000000000000000000000000000000000000000000000000000000815260040160405180910390fd5b505b60008060006130b261396e565b92509250925060006130c384613d0a565b905061310a8487878080601f016020809104026020016040519081016040528093929190818152602001838380828437600092019190915250889250879150869050613d24565b6131148482613d90565b5050600280546000935090915060ff60e01b1916600160e01b83611f12565b600254600160e81b900460ff161561315e57604051632a6ab56360e21b815260040160405180910390fd5b3360009081527f65ab7acc1bb8390bd4d3ba8eb4987cf212c814cedeacf3ad4b0583b29d65f538602052604090205460ff161580156131a75750600a54600160a01b900460ff16155b156131de576040517f11d74fb800000000000000000000000000000000000000000000000000000000815260040160405180910390fd5b600060028054600160e01b900460ff16908111156131fe576131fe615198565b1461321c57604051631e7b117d60e01b815260040160405180910390fd5b6002805460ff60e01b1916600160e11b1790556001600160a01b0382163b613257576040516310a0493960e11b815260040160405180910390fd5b61d6d881108061326957506216e36081115b156132a0576040517f11e80d6c00000000000000000000000000000000000000000000000000000000815260040160405180910390fd5b60138054600180820190925560007f66de8ffda797e3de9c05e8fc57b3bf0ec28a930d40b0d285d93c06501cf6a0909091018190556003805492830181557fc2575a0e9e593c00f959f8c92f12db2869c3395a3b0502d05e2516446f71f85b909201805473ffffffffffffffffffffffffffffffffffffffff19166001600160a01b0386169081179091559154808252600e6020908152604092839020859055915184815290929183917f85ac039d1da307b778050ca29271ac915424bac011342c9452960f6679b18ff0910160405180910390a350600280546000919060ff60e01b1916600160e01b836113ac565b61339a8133613e4f565b50565b5a81156133a75750805b6040517fa9059cbb00000000000000000000000000000000000000000000000000000000815284600482015283602482015260008060448360008a87f150505050505050565b60008281526001602090815260408083206001600160a01b038516845290915290205460ff166117265760008281526001602081815260408084206001600160a01b0386168086529252808420805460ff19169093179092559051339285917f2f8788117e7eff1d82e926ec794901d17c78024a50270940304540a733656f0d9190a45050565b60008281526001602090815260408083206001600160a01b038516845290915290205460ff16156117265760008281526001602090815260408083206001600160a01b0385168085529252808320805460ff1916905551339285917ff6391f5c32d9c69d2a47ea670b442974b53935d1edc7fd64eb21e047a839171b9190a45050565b82631fffffff81111561351d57604051630104ef3360e21b815260040160405180910390fd5b60008481526007602090815260408083206001600160a01b0387168452909152902054600254600160f01b900460ff1615613870576000858152601260209081526040808320815160a08101835290546001600160801b038116825263ffffffff7001000000000000000000000000000000008204811694830194909452600160a01b8104841692820192909252600160c01b8204909216606083015260ff600160e01b90910416608082018190529091906135da90600a615517565b9050816040015163ffffffff1660001480613612575080826040015163ffffffff166136069190615526565b61361086856151e1565b115b15613649576040517ffb1837c600000000000000000000000000000000000000000000000000000000815260040160405180910390fd5b606082015163ffffffff1661368a576040517fd014828600000000000000000000000000000000000000000000000000000000815260040160405180910390fd5b600081836060015163ffffffff166136a29190615526565b905060006136b3620151808361556f565b90506136d8846020015163ffffffff16426136ce919061541c565b612b469083615526565b845185906136e7908390615583565b6001600160801b0390811690915285511683101590506137165761370a82613927565b6001600160801b031684525b83516001600160801b031687111561375a576040517fd014828600000000000000000000000000000000000000000000000000000000815260040160405180910390fd5b61376387613927565b845185906137729083906155a5565b6001600160801b0390811690915263ffffffff428116602080890191825260008e81526012909152604090819020895181549351928b015160608c015160808d015160ff16600160e01b0260ff60e01b19918816600160c01b027fffffffff00000000ffffffffffffffffffffffffffffffffffffffffffffffff938916600160a01b02939093167fffffffff0000000000000000ffffffffffffffffffffffffffffffffffffffff969098167001000000000000000000000000000000000273ffffffffffffffffffffffffffffffffffffffff199097169390981692909217949094179290921693909317919091171691909117905550505050505b61387a83826151e1565b60009586526007602090815260408088206001600160a01b0390971688529590529390942092909255505050565b6040517f23b872dd000000000000000000000000000000000000000000000000000000008152836004820152826024820152816044820152843b6138f7576310a0493960e11b60005260046000fd5b602060006064836000895af190506001600051163d151780821661391f573d6000803e3d6000fd5b505050505050565b60006001600160801b0382111561396a576040517f7a781de100000000000000000000000000000000000000000000000000000000815260040160405180910390fd5b5090565b604080516101008082018352613ec48252613ecb602080840182905283850191909152613ef6606084018190526080840181905260a0840181905260c0840152613f0b60e084015283516111c46004359081013560448201359081046111c883013563ffffffff908116828104808402821415019092029096028481016111e0019098526111c08881018086529498919760009795968a0195602486019589948594614dae949391926111cc013590911690888a376111c098909801976111a9888101988a97509091010193505b86841115613a725760078735168089528060051b830151935050613a6487898563ffffffff16565b965061010088019750613a3c565b505050506111c088810151604051600092828604808c048082028d1415019384900393909261010084029260043560240182376111c08101905060208202810191505b81811015613b045760206000848960025afa613ad057600080fd5b6000517f30644e72e131a029b85045b68181585d2833e84879b9709143e1f593f00000019006815295820195602001613ab5565b8415613c8157600092508360208114613b505760108114613b785760408114613ba05760018114613bc85760028114613bf05760048114613c185760088114613c405760019650613c64565b7f0df0e06ab8a02ce2ff08babd7144ab23ca2e99ddf318080cf88602eeb8913d449350613c64565b7f1c52c159b4dae66c3dcf33b44d4d61ead6bc4d260f882ac6ba34dccf78892ca49350613c64565b7f1f83672815ac9b3ca31732d641784035834e96b269eaf6a2e759bf4fcc8e5bfd9350613c64565b7f22dd983f8337d97d56071f7986209ab2ee6039a422242e89126701c6ee005af09350613c64565b7f076a27c79e5ace2a3d47f9dd2e83e4ff6ea8872b3c2218f66c92b89b55f365609350613c64565b7f2f0c70a5bf5460465e9902f9c96be324e8064e762a5de52589fdb97cbce3c6ee9350613c64565b7f240ed0de145447ff0ceff2aa477f43e0e2ed7f3543ee3d8832f158ec76b183a993505b5060208502820191505b81811015613c8157828152602001613c6e565b6040519450602060008683038760025afa613c9b57600080fd5b50505050507f30644e72e131a029b85045b68181585d2833e84879b9709143e1f593f00000016000510696508015613cff576040517f3259ec1e00000000000000000000000000000000000000000000000000000000815260040160405180910390fd5b505050505050909192565b6111a08101516001600160a01b03811115611b1c57600080fd5b6000613d308684613f3f565b9050613d3d868587614010565b604080516000815260208101918290529082907f14054a15b39bfd65ec00fc6d15c7e5f9cbc1dc6f452cbefa359b4da61ad89fb690613d7f90849033906155cd565b60405180910390a250505050505050565b60005b6010811015611694576000613daf848360200201610b80015190565b90508015613e46576000613dc385846140d8565b905080613ddc57600080600080858861c350f150613e0a565b6000613de782611b21565b9050613e08818685600e60008781526020019081526020016000205461339d565b505b807ffcee1fed482d2bc1f15e6a24f97e7d374901ceb49850b655fb44ff67af0e0bb383604051613e3c91815260200190565b60405180910390a2505b50600101613d93565b60008281526001602090815260408083206001600160a01b038516845290915290205460ff1661172657613e82816140f4565b613e8d836020614106565b604051602001613e9e92919061564d565b60408051601f198184030181529082905262461bcd60e51b8252611713916004016156ce565b5060010190565b600060a0602084016020840137601460c0840160cc840137600460d4840160fc840137505060b90190565b60006080602084016020840137505060810190565b60006040517fd0426f7b00000000000000000000000000000000000000000000000000000000815260040160405180910390fd5b60405160009063ffffffff600480356111cc810135929092168083016111ec01939290910135037fffffffffffffffffffffffffffffffffffffffffffffffffffffffffffffee38019060ac815360316001820153608c6002820153605d600382015360406004820152846024820152816044820152818360648301376001600160a01b03600254169250823b613fe1576310a0493960e11b60005260046000fd5b6000806064840183865afa9250505080613fff573d6000803e3d6000fd5b506140098361432f565b9392505050565b60006111e08085019061010085028601015b8082101561391f5760a082015180156140cb57825160e084015160c085015160018314156140b35761010086206001600160a01b038216600090815260086020908152604080832084845290915290205460ff166140a657888801805160608252600061408e846144e2565b905061409b8184876145fb565b509052606097909701965b6140b183838761474e565b505b82600214156140c7576140c78482846147cf565b5050505b6101008301925050614022565b602081028201610980015163ffffffff811115610f8757600080fd5b6060610f876001600160a01b03831660145b60606000614115836002615526565b6141209060026151e1565b67ffffffffffffffff811115614138576141386151f9565b6040519080825280601f01601f191660200182016040528015614162576020820181803683370190505b5090507f300000000000000000000000000000000000000000000000000000000000000081600081518110614199576141996151cb565b60200101907effffffffffffffffffffffffffffffffffffffffffffffffffffffffffffff1916908160001a9053507f7800000000000000000000000000000000000000000000000000000000000000816001815181106141fc576141fc6151cb565b60200101907effffffffffffffffffffffffffffffffffffffffffffffffffffffffffffff1916908160001a9053506000614238846002615526565b6142439060016151e1565b90505b60018111156142e0577f303132333435363738396162636465660000000000000000000000000000000085600f1660108110614284576142846151cb565b1a60f81b82828151811061429a5761429a6151cb565b60200101907effffffffffffffffffffffffffffffffffffffffffffffffffffffffffffff1916908160001a90535060049490941c936142d981615701565b9050614246565b5083156140095760405162461bcd60e51b815260206004820181905260248201527f537472696e67733a20686578206c656e67746820696e73756666696369656e746044820152606401611713565b60008060008060008061434187614858565b945094509450945094506009548414614390576040517f34fddf400000000000000000000000000000000000000000000000000000000081526004810185905260248101849052604401611713565b60025463ffffffff600160a01b909104811690831681816143b3576143b3615545565b0663ffffffff166000141561441c578063ffffffff168263ffffffff1614614417576040517f7861e6c600000000000000000000000000000000000000000000000000000000815263ffffffff808416600483015282166024820152604401611713565b614496565b60008363ffffffff168263ffffffff168161443957614439615545565b068483010363ffffffff169050808363ffffffff1614614494576040517f7861e6c600000000000000000000000000000000000000000000000000000000815263ffffffff8416600482015260248101829052604401611713565b505b506009929092556002805463ffffffff9390920192909216600160a01b027fffffffffffffffff00000000ffffffffffffffffffffffffffffffffffffffff9091161790555092915050565b6000806144ee83614901565b90506040517f19457468657265756d205369676e6564204d6573736167653a0a32313000000060208201527f5369676e696e672074686973206d6573736167652077696c6c20616c6c6f7720603d8201527f796f75722070656e64696e672066756e647320746f206265207370656e742069605d8201527f6e20417a746563207472616e73616374696f6e3a0a0a30780000000000000000607d82015260208201516095820152604082015160b58201527f0a0a494d504f5254414e543a204f6e6c79207369676e20746865206d6573736160d58201527f676520696620796f752074727573742074686520636c69656e7400000000000060f582015260ef602082012092505050919050565b6000806001600160a01b03831661463e576040517fd57e351000000000000000000000000000000000000000000000000000000000815260040160405180910390fd5b8351858552606085015160408601518060608801526020870151604088015281602088015260208760808960015afa601c8314601b84141760608514167f7fffffffffffffffffffffffffffffff5d576e7357a4501ddfe92f46681b20a1831016169450505084518614600081146146b5576146ba565b855192505b5084528015199190911690816146fc576040517f8a3e28aa00000000000000000000000000000000000000000000000000000000815260040160405180910390fd5b826001600160a01b0316816001600160a01b031614614747576040517fa3402a3800000000000000000000000000000000000000000000000000000000815260040160405180910390fd5b5050505050565b82631fffffff81111561477457604051630104ef3360e21b815260040160405180910390fd5b60008481526007602090815260408083209091528482529020805483810390915582118015614747576040517f8e8af4f900000000000000000000000000000000000000000000000000000000815260040160405180910390fd5b6001600160a01b03821661480f576040517f6df19fea00000000000000000000000000000000000000000000000000000000815260040160405180910390fd5b80614826576000806000808686617530f150505050565b600061483182611b21565b9050614852818486600e60008781526020019081526020016000205461339d565b50505050565b604081015160608201516000918291829160011b906020860163ffffffff808411908311171561488757600080fd5b805195506040518681526060820151602082015260a0820151604082015260e08201516060820152610120820151608082015260a0812095506001870181526080820151602082015260c082015160408201526101008201516060820152610140820151608082015260a081209450505091939590929450565b606081614969576040519050604081527f303030303030303030303030303030303030303030303030303030303030303060208201527f3030303030303030303030303030303030303030303030303030303030303030604082015260608101604052919050565b506040517f3030303130323033303430353036303730383039306130623063306430653066607e8201527f3130313131323133313431353136313731383139316131623163316431653166609e8201527f323032313232323332343235323632373238323932613262326332643265326660be8201527f333033313332333333343335333633373338333933613362336333643365336660de8201527f343034313432343334343435343634373438343934613462346334643465346660fe8201527f353035313532353335343535353635373538353935613562356335643565356661011e8201527f363036313632363336343635363636373638363936613662366336643665366661013e8201527f373037313732373337343735373637373738373937613762376337643765376661015e8201527f383038313832383338343835383638373838383938613862386338643865386661017e8201527f393039313932393339343935393639373938393939613962396339643965396661019e8201527f61306131613261336134613561366137613861396161616261636164616561666101be8201527f62306231623262336234623562366237623862396261626262636264626562666101de8201527f63306331633263336334633563366337633863396361636263636364636563666101fe8201527f643064316432643364346435643664376438643964616462646364646465646661021e8201527f653065316532653365346535653665376538653965616562656365646565656661023e8201527f663066316632663366346635663666376638663966616662666366646665666661025e820152606081018260408352600181901b6101fe908116830151601e52600782901c8116830151601c52600f82901c8116830151601a52601782901c8116830151601852601f82901c8116830151601652602782901c8116830151601452602f82901c8116830151601252603782901c8116830151601052603f82901c8116830151600e52604782901c8116830151600c52604f82901c8116830151600a52605782901c8116830151600852605f82901c8116830151600652606782901c8116830151600452606f82901c8116830151600252607782901c16820151600052601e51604084015260801c614d9882826101fe600182901b8116830151601e52600782901c8116830151601c52600f82901c8116830151601a52601782901c8116830151601852601f82901c8116830151601652602782901c8116830151601452602f82901c8116830151601252603782901c8116830151601052603f82901c8116830151600e52604782901c8116830151600c52604f82901c8116830151600a52605782901c8116830151600852605f82901c8116830151600652606782901c8116830151600452606f82901c811683015160025260779190911c160151600052565b5050601e51602082015260608101604052919050565b614db6615718565b565b600060208284031215614dca57600080fd5b81357fffffffff000000000000000000000000000000000000000000000000000000008116811461400957600080fd5b600060208284031215614e0c57600080fd5b5035919050565b60008060408385031215614e2657600080fd5b50508035926020909101359150565b801515811461339a57600080fd5b600060208284031215614e5557600080fd5b813561400981614e35565b60008083601f840112614e7257600080fd5b50813567ffffffffffffffff811115614e8a57600080fd5b602083019150836020828501011115614ea257600080fd5b9250929050565b600080600080600060808688031215614ec157600080fd5b853594506020860135935060408601359250606086013567ffffffffffffffff811115614eed57600080fd5b614ef988828901614e60565b969995985093965092949392505050565b6001600160a01b038116811461339a57600080fd5b60008060408385031215614f3257600080fd5b8235614f3d81614f0a565b91506020830135614f4d81614f0a565b809150509250929050565b60008060408385031215614f6b57600080fd5b823591506020830135614f4d81614f0a565b600060208284031215614f8f57600080fd5b813561400981614f0a565b803563ffffffff81168114611b1c57600080fd5b600060208284031215614fc057600080fd5b61400982614f9a565b60008060408385031215614fdc57600080fd5b8235614fe781614f0a565b946020939093013593505050565b6000806000806080858703121561500b57600080fd5b8435935060208501359250604085013561502481614f0a565b9396929550929360600135925050565b6000806040838503121561504757600080fd5b823561505281614f0a565b91506020830135614f4d81614e35565b60008060006060848603121561507757600080fd5b8335925060208401359150604084013561509081614e35565b809150509250925092565b600080600080608085870312156150b157600080fd5b843593506150c160208601614f9a565b92506150cf60408601614f9a565b9150606085013560ff811681146150e557600080fd5b939692955090935050565b6000806000806040858703121561510657600080fd5b843567ffffffffffffffff8082111561511e57600080fd5b61512a88838901614e60565b9096509450602087013591508082111561514357600080fd5b5061515087828801614e60565b95989497509550505050565b634e487b7160e01b600052601160045260246000fd5b600061ffff80831681851680830382111561518f5761518f61515c565b01949350505050565b634e487b7160e01b600052602160045260246000fd5b6000602082840312156151c057600080fd5b815161400981614e35565b634e487b7160e01b600052603260045260246000fd5b600082198211156151f4576151f461515c565b500190565b634e487b7160e01b600052604160045260246000fd5b6040516101e0810167ffffffffffffffff8111828210171561524157634e487b7160e01b600052604160045260246000fd5b60405290565b60006020828403121561525957600080fd5b6040516020810181811067ffffffffffffffff8211171561528a57634e487b7160e01b600052604160045260246000fd5b6040529151825250919050565b80516001600160801b0381168114611b1c57600080fd5b805164ffffffffff81168114611b1c57600080fd5b805161ffff81168114611b1c57600080fd5b8051611b1c81614f0a565b60006101e082840312156152f357600080fd5b6152fb61520f565b6153058484615247565b815261531360208401615297565b602082015261532460408401615297565b604082015261533560608401615297565b606082015261534660808401615297565b608082015261535760a08401615297565b60a082015261536860c084016152ae565b60c082015261537960e084016152c3565b60e082015261010061538c8185016152d5565b9082015261012061539e8482016152d5565b908201526101406153b08482016152d5565b908201526101606153c28482016152d5565b908201526101806153d4848201615297565b908201526101a06153e6848201615297565b908201526101c06153f8848201615297565b908201529392505050565b60006020828403121561541557600080fd5b5051919050565b60008282101561542e5761542e61515c565b500390565b600181815b8085111561546e5781600019048211156154545761545461515c565b8085161561546157918102915b93841c9390800290615438565b509250929050565b60008261548557506001610f87565b8161549257506000610f87565b81600181146154a857600281146154b2576154ce565b6001915050610f87565b60ff8411156154c3576154c361515c565b50506001821b610f87565b5060208310610133831016604e8410600b84101617156154f1575081810a610f87565b6154fb8383615433565b806000190482111561550f5761550f61515c565b029392505050565b600061400960ff841683615476565b60008160001904831182151516156155405761554061515c565b500290565b634e487b7160e01b600052601260045260246000fd5b60008261556a5761556a615545565b500690565b60008261557e5761557e615545565b500490565b60006001600160801b0380831681851680830382111561518f5761518f61515c565b60006001600160801b03838116908316818110156155c5576155c561515c565b039392505050565b604080825283519082018190526000906020906060840190828701845b82811015615606578151845292840192908401906001016155ea565b5050506001600160a01b039490941692019190915250919050565b60005b8381101561563c578181015183820152602001615624565b838111156148525750506000910152565b7f416363657373436f6e74726f6c3a206163636f756e7420000000000000000000815260008351615685816017850160208801615621565b7f206973206d697373696e6720726f6c652000000000000000000000000000000060179184019182015283516156c2816028840160208801615621565b01602801949350505050565b60208152600082518060208401526156ed816040850160208701615621565b601f01601f19169190910160400192915050565b6000816157105761571061515c565b506000190190565b634e487b7160e01b600052605160045260246000fdfea2646970667358221220a875600bc09be1f6edb074f905734503cd021a47c031fa2daf9c0babfa89c8dd64736f6c634300080a0033",
    "linkReferences": {}
  },
  "methodIdentifiers": {
    "AAVE_ADMIN_ROLE()": "5274098d",
    "DEFAULT_ADMIN_ROLE()": "a217fddf",
    "EMERGENCY_ROLE()": "20df4359",
    "LISTER_ROLE()": "deb26b94",
    "OWNER_ROLE()": "e58378bb",
    "RESUME_ROLE()": "2de03aa1",
    "aaveAssetDeposited(uint256)": "28f0cbc0",
    "aavePoolProxy()": "3feeeabb",
    "allowThirdPartyContracts()": "999e3614",
    "approveProof(bytes32)": "e3936355",
    "assetGasLimits(uint256)": "03561119",
    "asyncDefiInteractionHashes(uint256)": "cd12bf62",
    "bridgeGasLimits(uint256)": "f21c69bb",
    "caps(uint256)": "c37c656d",
    "defiBridgeProxy()": "0ceee68c",
    "defiInteractionHashes(uint256)": "a33dc5e7",
    "delayBeforeEscapeHatch()": "c4a7a35f",
    "depositPendingFunds(uint256,uint256,address,bytes32)": "7ff48afb",
    "depositProofApprovals(address,bytes32)": "781e0432",
    "depositToLP(uint256,uint256)": "03a7f1e9",
    "escapeBlockLowerBound()": "b045009c",
    "escapeBlockUpperBound()": "d8ba3637",
    "ethPayments(uint256)": "dcefed85",
    "getAsyncDefiInteractionHashesLength()": "7baf7118",
    "getCapped()": "9b60ae2b",
    "getDataSize()": "7d036b27",
    "getDefiInteractionHashesLength()": "db1533aa",
    "getEscapeHatchStatus()": "be71f8a4",
    "getImplementationVersion()": "bc327e40",
    "getInterestBalance(uint256)": "599eafb3",
    "getPendingDefiInteractionHashesLength()": "02f6ccd4",
    "getRoleAdmin(bytes32)": "248a9ca3",
    "getSupportedAsset(uint256)": "60a8b18a",
    "getSupportedAssetsLength()": "c0fd22b7",
    "getSupportedBridge(uint256)": "e0d16c32",
    "getSupportedBridgesLength()": "a8d1eae7",
    "grantRole(bytes32,address)": "2f2ff15d",
    "hasRole(bytes32,address)": "91d14854",
    "initAave(address,address)": "258eed5a",
    "initialize()": "8129fc1c",
    "lastRollupTimeStamp()": "20a23dd3",
    "nativeWrappedToken()": "e4301ec5",
    "offchainData(uint256,uint256,uint256,bytes)": "20825443",
    "pause()": "8456cb59",
    "paused()": "5c975abb",
    "pendingDefiInteractions(uint256)": "8afceb39",
    "prevDefiInteractionsHash()": "7ba3e7ae",
    "processAsyncDefiInteraction(uint256)": "8188f468",
    "processRollup(bytes,bytes)": "f81cccbe",
    "receiveEthFromBridge(uint256)": "12a53623",
    "renounceRole(bytes32,address)": "36568abe",
    "revokeRole(bytes32,address)": "d547741f",
    "rollupProviders(address)": "5ad1def3",
    "rollupStateHash()": "1ab9c603",
    "setAllowThirdPartyContracts(bool)": "a2b096e4",
    "setAssetCap(uint256,uint32,uint32,uint8)": "b3a07b98",
    "setCapped(bool)": "0d698f6f",
    "setDefiBridgeProxy(address)": "caa34553",
    "setDelayBeforeEscapeHatch(uint32)": "6a0214a9",
    "setRollupProvider(address,bool)": "91dfe78f",
    "setSupportedAsset(address,uint256)": "fb0ce185",
    "setSupportedBridge(address,uint256)": "8666c0a9",
    "setVerifier(address)": "5437988d",
    "supportsInterface(bytes4)": "01ffc9a7",
    "unpause()": "3f4ba83a",
    "userPendingDeposits(uint256,address)": "36ce0a92",
    "verifier()": "2b7ac3f3",
    "withdrawFromLP(uint256,uint256,bool)": "a7a8fee5",
    "withdrawInterest(uint256)": "08669aab"
  },
  "id": 123
}